:1000000071C000008FC000008DC000008BC00000D8
:1000100089C000000C942909B6C0000083C000000C
:1000200081C000007FC000007DC000007BC00000D8
:1000300079C0000077C0000075C0000073C00000E8
:1000400071C000008CC300006DC000006BC00000D8
:1000500069C0000067C0000065C0000063C0000008
:1000600061C000005FC000005DC000005BC0000018
:1000700059C0000057C0000055C0000053C0000028
:1000800051C000004FC000004DC000004BC0000038
:100090000C94BE0D47C0000045C0000043C00000E6
:1000A00041C000003FC000009FC000003BC00000F6
:1000B00039C0000037C0000035C0000033C0000068
:1000C00031C000002FC000002DC000002BC0000078
:1000D00029C0000027C0000025C0000023C0000088
:1000E00021C0000011241FBECFEFD1E2DEBFCDBF83
:1000F00000E00CBF12E0A0E0B2E0EAEEFBE100E0BD
:100100000BBF02C007900D92A03CB107D9F72CE0BD
:10011000A0ECB2E001C01D92A93FB207E1F768D29E
:100120000C94F30D6DCF249AA0EBB0E01C92E1EBA0
:10013000F0E010828C9183608C9380818860808352
:1001400080818160808385EA91E09093890080932B
:10015000880082ED90E090938D0080938C00109247
:10016000A000E1EAF0E01082808181608083E2E714
:10017000F0E080818D7F80836D98EAE6F0E08081F9
:100180008C60808308951F920F920FB60F921124F6
:100190000BB60F928F939F93EF93FF938091C302BF
:1001A000811117C081E08093C3021092C1021092A6
:1001B000C002C99A8091A4009091A5008052914DEF
:1001C0009093A9008093A800E2E7F0E0808182602C
:1001D0008083FF91EF919F918F910F900BBE0F90B5
:1001E0000FBE0F901F9018951F920F920FB60F928F
:1001F00011240BB60F922F933F934F935F936F93FE
:100200007F938F939F93AF93BF93EF93FF938091CF
:10021000C302882379F1649B0EC03091C102209102
:10022000C00281E090E002C0880F991F3A95E2F782
:10023000822B8093C0028091C1028F5F8093C102A4
:10024000E8EAF0E080819181805C904E9183808328
:100250008091C102883080F01092C302E2E7F0E0A2
:1002600080818D7F8083C99AE49A8091C0020E9428
:100270006A0B02C08091C202FF91EF91BF91AF91D2
:100280009F918F917F916F915F914F913F912F91AE
:100290000F900BBE0F900FBE0F901F901895E49A11
:1002A000EC9A0895EC98E2E7F0E080818D7F8083FE
:1002B000C99A1092C3020895E0EBF0E08081806853
:1002C000808386EA8A95F1F700C00895E0EBF0E0BC
:1002D00080818F77808386EA8A95F1F700C0089540
:1002E0000F931F93CF93DF93082FF894DBDFE4DFA6
:1002F000EDDFC0E0D0E010E098010C2E02C0359593
:1003000027950A94E2F720FF02C0D6DF01C0DEDFA6
:100310002196C830D10581F7D9DFC1DF7894DF910C
:10032000CF911F910F910895EF92FF920F931F931A
:10033000CF93DF93CDB7DEB72C970FB6F894DEBF1F
:100340000FBECDBFE1E8F0E0808182608083109233
:100350002001E1E2F1E08081826080839AD30F2E58
:10036000F5E2EF2EFCE0FF2EF02D8CEF92E0D701AE
:1003700011969C938E9309E21CE0F801108210D331
:1003800084E59DE0D70111969C938E9383E0F8015C
:10039000808306D388ED92E09093210C8093200C0B
:1003A00081E08093DA0380ED92E071D2EFE6F0E035
:1003B000808182608083E4E8F0E080819181A0E028
:1003C000B0E089879A87AB87BC8781E792E0A0E09D
:1003D000B0E08D839E83AF83B88789859A85AB858E
:1003E000BC854D815E816F817885840F951FA61F26
:1003F000B71F89839A83AB83BC8349815A816B8100
:100400007C8128E830E0D90111965C934E9380817D
:1004100091818F589D4F11969C938E9382E086BB5D
:1004200041D435D42C960FB6F894DEBF0FBECDBFA5
:10043000DF91CF911F910F91FF90EF900895F89465
:1004400080EF8AB98091C6020091C6020F5F0F2E1D
:10045000F0EFCF2EF02D0F2EF4E6DF2EF02DB12C85
:100460000F2EF0E9FF2EF02D1AE00F2EF4E1EF2E03
:10047000F02DCBB8CD2D0FD4C150E9F71BB8C8E291
:100480000AD4C150E9F7002399F0DB2DFBB8C12F46
:1004900002D4C150E9F71BB8C12FFDD3C150E9F711
:1004A000DF5F0D13F3CF04C0F6D3C150E9F7E1CFFE
:1004B000CE2DFACF0F931F93CF93CFB7F89490938D
:1004C000260C8093250C7093280C6093270C82E0F7
:1004D0008093290C50932B0C40932A0C30932D0CB5
:1004E00020932C0C10932F0C00932E0C8093240C33
:1004F000DDD08091220C9091230CCFBFCF911F9122
:100500000F910895CF93CFB7F8949093260C8093D2
:10051000250C7093280C6093270C83E08093290CA2
:1005200082E08093240CC2D08091220C9091230C05
:10053000CFBFCF910895CF93CFB7F8949093260C67
:100540008093250C7093280C6093270C81E0809396
:10055000290C82E08093240CA9D08091220C9091E8
:10056000230CCFBFCF910895CF93DF931F92CDB7C8
:10057000DEB78FB78983F89484E08093240C96D0FB
:1005800089818FBF0F90DF91CF910895CF93CFB71F
:10059000F89483E08093240C89D0CFBFCF91089545
:1005A00040912401509125019A01A5E2B6E00E94F4
:1005B000E40D481B590B56954795840F951FAC01C8
:1005C0000024440F551F001C440F551F001C452FCD
:1005D000502D8091C4029091C502A0E0B0E0840F3C
:1005E000951FA11DB11D9093C5028093C40208956B
:1005F0009BDE80E090E00895FFCFFF93FCB7FF9370
:10060000FFB7F894FF93EF93DF93CF93BF93AF932C
:100610009F938F937F936F935F934F933F932F930A
:100620001F930F93FF92EF92DF92CF92BF92AF9200
:100630009F928F927F926F925F924F923F922F92F2
:100640001F920F928DB79EB79093310C8093300C10
:10065000E091200CF091210CF395808191819EBF57
:100660008DBF0F901F902F903F904F905F906F9095
:100670007F908F909F90AF90BF90CF90DF90EF9042
:10068000FF900F911F912F913F914F915F916F912B
:100690007F918F919F91AF91BF91CF91DF91EF911A
:1006A000FF91FFBFFF91FCBFFF910895FF93FCB73F
:1006B000FF93FFB7F894FF93EF93DF93CF93BF932C
:1006C000AF939F938F937F936F935F934F933F93DA
:1006D0002F931F930F93FF92EF92DF92CF92BF92CF
:1006E000AF929F928F927F926F925F924F923F92C2
:1006F0002F921F920F92E091200CF091210C8DB758
:100700009EB7F395918380838091300C9091310C4A
:100710009EBF8DBF0F901F902F903F904F905F9086
:100720006F907F908F909F90AF90BF90CF90DF9011
:10073000EF90FF900F911F912F913F914F915F91FB
:100740006F917F918F919F91AF91BF91CF91DF91E9
:10075000EF91FF91FFBFFF91FCBFFF910895FF93C1
:10076000FCB7FF93FFB7F894F068FF93EF93DF9324
:10077000CF93BF93AF939F938F937F936F935F9329
:100780004F933F932F931F930F93FF92EF92DF921C
:10079000CF92BF92AF929F928F927F926F925F9211
:1007A0004F923F922F921F920F92E091200CF09166
:1007B000210C8DB79EB7F395918380838091300C87
:1007C0009091310C9EBF8DBF81E08093240CE8E8AE
:1007D000F0E0808191818F589D4F9183808380913B
:1007E000300C9091310C9EBF8DBF0F901F902F90B9
:1007F0003F904F905F906F907F908F909F90AF90C1
:10080000BF90CF90DF90EF90FF900F911F912F91AD
:100810003F914F915F916F917F918F919F91AF9198
:10082000BF91CF91DF91EF91FF91FFBFFF91FCBF8F
:10083000FF910895FC01DB01AA5FBE4F1D921C923F
:1008400080819181892B29F4718360837383628312
:100850000895A281B381AA5FBE4F6D937C93738389
:10086000628308958091200C9091210CFC01EE5F31
:10087000FE4F108233962081223009F447D26091D6
:10088000200C7091210C88EC92E0D4CF0895FC01EB
:1008900080819181009751F0DC01AA5FBE4F2D91BC
:1008A0003C911197318320831D921C920895809171
:1008B000200C9091210CFC01EE5FFE4F2081213035
:1008C00041F420911B0230911C028217930709F01A
:1008D00066C08091CC029091CD02892B41F08CECC6
:1008E00092E0D5DF9093210C8093200C50C0809132
:1008F000D0029091D102892B41F080ED92E0C7DFC8
:100900009093210C8093200C42C0E0911902F09149
:100910001A028781811112C0FAD1892B21F082E05D
:100920008093320C8CDDE0911902F0911A028285DD
:1009300093859093210C8093200C29C0E8D1892BBA
:1009400081F454D290931A0280931902FC012481FD
:100950002093C702828593859093210C8093200C6D
:1009600016C08091D4029091D502892B41F084ED7C
:1009700092E08DDF9093210C8093200C08C0809131
:100980001B0290911C029093210C8093200CE0910B
:10099000200CF091210CEE5FFE4F81E080830895E2
:1009A0000F931F938091C8029091C902892B09F47B
:1009B00068C08091290C882321F088EC92E067DFE1
:1009C00002C088E19BE0FC01E752FF4F108220E863
:1009D0007E96208333961082E5E2FCE0208131810F
:1009E000DC01A550BF4F3C9320813181FC01E450D4
:1009F000FF4F20833196108226EC32E0319630830F
:100A00003196208331969C0129523F4F31832083B8
:100A100022E0329620832091270C3091280C3196C9
:100A200031832083E9E2FCE020811A962C93208117
:100A3000223029F02330B9F0213031F51BC000916C
:100A4000250C1091260C20912C0C30912D0C4091EE
:100A50002A0C50912B0C60912E0C70912F0C28D1E8
:100A600081E090E013C0BC0180ED92E0E3DE81E024
:100A700090E00CC0BC0184ED92E0DCDE81E090E00F
:100A800005C080E090E002C081E090E01F910F91EE
:100A90000895EAEDF3E022E13BE01082CF010696F3
:100AA00095838483E85FFE4FE217F307B1F7109256
:100AB000170B1092160B88ED92E09093C902809369
:100AC000C80280E19AE09093CB028093CA02089515
:100AD000E0911902F0911A028781811118C080916A
:100AE000C70281508093C7028091C70281110FC055
:100AF0008091200C9091210C009749F0FC01EB5F54
:100B0000FE4F8081823019F48093320C98CC089586
:100B10008091240C823039F130F4882309F4A3C089
:100B2000813051F09CC0843009F467C008F458C08B
:100B3000853009F498C093C0CBDF6091200C709190
:100B4000210CFB01EB5FFE4F8081813009F08BC0EF
:100B500033978081813009F086C082E0808384ED04
:100B600092E068DE80C01CDF9093230C8093220CFF
:100B70008091220C9091230C892B09F474C08091F0
:100B8000290C833061F48091200C9091210CFC01A0
:100B9000EB5FFE4F2081233009F068C064C0609194
:100BA000200C7091210CFB01EB5FFE4F80818130A6
:100BB00009F059C08091290C823039F480912E0CB3
:100BC00090912F0C892B09F457C0FB01EE5FFE4F6B
:100BD0008081823009F047C084ED92E02BDE43C073
:100BE0002091200C3091210C80911B0290911C02CD
:100BF00028173907C1F136DE36C06091200C70919C
:100C0000210CFB01EB5FFE4F8081823079F0833055
:100C100019F08130D9F411C0FB01EE5FFE4F8081E5
:100C20008330A1F080ED92E005DE10C0E091190262
:100C3000F0911A0281E0878309C0FB01EE5FFE4F4D
:100C40008081833019F084ED92E0F4DDE091200C96
:100C5000F091210CEE5FFE4F82E0808304C087E0BC
:100C60008093320CECDB1092240C0895FC01EE5FB3
:100C7000FE4F22E0208393CF82E0FB01EE5FFE4F28
:100C8000808333968081813009F49FCFECCF0FDED3
:100C9000B4DC3EDFFCCF89E698E10197F1F700C0B4
:100CA000000008957DDC9093370C8093360C0895F6
:100CB000FF920F931F93CF93DF93F090330CE7E0F5
:100CC000EF15F0F0AF2DB0E0ED01CC0FDD1FFE0110
:100CD000EA0FFB1FEE0FFF1FEE0FFF1FE85CF34F45
:100CE00073836283518340833583248321E0268389
:100CF00017821187008793878287F394F092330CD1
:100D0000DF91CF911F910F91FF90089508957F92E9
:100D10008F929F92AF92BF92CF92DF92EF92FF920B
:100D20000F931F93CF93DF933BDC2091360C3091D0
:100D3000370C6C01C21AD30A9093370C8093360C8F
:100D4000C8E3DCE00FE31CE00F2EF8E9EF2EFCE037
:100D5000FF2EF02D8FEF9FEFA12CB12C0F2EF5E081
:100D60007F2EF02D812C912CD801F8013197208114
:100D7000222341F12A813B812C193D093B832A839F
:100D800012161306DCF0A114B10491F4A884B984FE
:100D9000D093350CC093340C1C922A813B818881FE
:100DA0009981820F931F9B838A83882D992D0AC076
:100DB0007092980C44DB882D992D04C028173907B0
:100DC00008F4C9012C96045F1F4FCE15DF0561F6AC
:100DD000DF91CF911F910F91FF90EF90DF90CF9017
:100DE000BF90AF909F908F907F9008958091340C2A
:100DF0009091350C2DE132E03093350C2093340C7A
:100E00000895CF93DF93C2E0D1E088818F7B888300
:100E10008FEFD2D2988190649883DF91CF9108951B
:100E2000EF92FF920F931F93CF93DF938B01E42EEA
:100E3000C2E0D1E098819F7B98838F718062BCD2A1
:100E4000F82E6E2DC801A9D28881806488838F2DE9
:100E5000DF91CF911F910F91FF90EF9008958091B6
:100E60003602882329F045E06CE272E08AE0D8CFB0
:100E70000895FF920F931F93CF93DF938B01EA01A5
:100E8000F22EE2E0F1E090819F7B908395D2FF20EB
:100E900051F0209721F46F2DC8017FD204C04F2D4F
:100EA000BE01C80167D2E2E0F1E080818064808306
:100EB000DF91CF911F910F91FF900895EF92FF92D4
:100EC0000F931F93CF93DF93062FF72E142F4423F6
:100ED00049F0362FE62FF72F2FEF21939E2F931BEC
:100EE0009117D8F3C2E0D1E098819F7B98838F71EE
:100EF00063D2E82E412F602F7F2D80E090E03AD220
:100F00008881806488838E2DDF91CF911F910F910E
:100F1000FF90EF900895CF93DF931F92CDB7DEB788
:100F200041E0BE016F5F7F4F80E0C8DF898180FDB7
:100F300010C08160898341E0BE016F5F7F4F80E018
:100F40006FDF85E18A95F1F700C085E18A95F1F7B9
:100F500000C00F90DF91CF910895CF93DF931F9240
:100F6000CDB7DEB71092990CE1E0F1E080818861A5
:100F70008083A2E0B1E08C918F7E8C938C91877FEF
:100F80008C938C918F7D8C93808180628083808113
:100F9000806480836C98EAE6F0E0808182608083E0
:100FA00080818E7F8083EC9AE49A8DEB9AE00197A2
:100FB000F1F700C00000D1D183E0898341E0BE0198
:100FC0006F5F7F4F2DDF85E1898341E0BE016F5F59
:100FD0007F4F84E025DF88E6898341E0BE016F5FB3
:100FE0007F4F85E01DDF89E0898341E0BE016F5FAF
:100FF0007F4F86E015DF8FE0898341E0BE016F5FA0
:101000007F4F80E00DDF80E7898341E0BE016F5FA5
:101010007F4F87E005DF20E040E050E060E070E0D7
:1010200081EE27DF20E040E050E060E070E082EEFB
:1010300020DF83EF91E00197F1F700C00000E2E0CC
:10104000F1E08081806280838081806180830F9065
:10105000DF91CF910895CF92DF92EF92FF920F939D
:101060001F93CF93DF931F92CDB7DEB7D82EC42E38
:1010700085E08D1508F46FC0D11011C0FB0180818F
:1010800080932C02818180932D02828180932E0295
:10109000838180932F0284818093300203C0F1E02A
:1010A000FD1510F045E001C041E08AE08D0DB8DE8D
:1010B00041E0BE016F5F7F4F81E000DFED2CF12C3E
:1010C00001E010E00D2C02C0000F111F0A94E2F79E
:1010D0008981802B898341E0BE016F5F7F4F81E072
:1010E0009FDEC11008C01FC041E0BE016F5F7F4F8F
:1010F00082E096DE30C080E2898341E0BE016F5F0E
:101100007F4F81E18D0D8CDE8981F701EA5CFD4F17
:10111000808341E0BE016F5F7F4F82E0CFDE898137
:10112000082B0983E1CF198241E0BE016F5F7F4F39
:1011300081E18D0D75DE8981F701EA5CFD4F8083C9
:1011400041E0BE016F5F7F4F82E0B8DE009589818C
:1011500008230983C9CF0F90DF91CF911F910F9181
:10116000FF90EF90DF90CF900895FC0180818093F5
:1011700031028181809332028281809333028381A4
:101180008093340284818093350245E0BF0180E181
:1011900047CE08950F931F93CF93DF931F92CDB740
:1011A000DEB7082F162F6430C8F48230B8F441E05F
:1011B000BE016F5F7F4F86E081DE110F89818660FF
:1011C0001823002319F01860198302C0177F1983B0
:1011D00041E0BE016F5F7F4F86E022DE0F90DF911E
:1011E000CF911F910F910895CF93DF93EC0110924F
:1011F000990CE2E0F1E080818F7D808302DE8E70C9
:10120000282F30E035952795F901FF27DF01AA5CEB
:10121000BD4F8C91813270F4273071F0FD01208137
:10122000AE01BE0181E625DEECDD8E708E3031F040
:1012300083E005C080E003C082E001C084E0E2E01A
:10124000F1E09081906290831092990CDF91CF91A0
:1012500008951F920F920FB60F9211240BB60F92A2
:101260002F933F934F935F936F937F938F939F93AE
:10127000AF93BF93EF93FF93CF93DF931F92CDB7BD
:10128000DEB7E2E0F1E080818F7E808380818F7D18
:101290008083B7DD898386FF03C08E7086956FD209
:1012A000898185FF1BC01092990CD9DD34DE8091B5
:1012B0002A0290912B02880F991F90932B02809302
:1012C0002A0280912A0290912B02816090932B0236
:1012D00080932A0281E08093290219C084FF17C0FD
:1012E00020E040E050E060E070E081EEC2DD10926E
:1012F000990CB5DD10DE80912A0290912B02880FA7
:10130000991F90932B0280932A021092290280E762
:10131000898341E0BE016F5F7F4F87E081DDE2E0BE
:10132000F1E08081806180838081806280830F9082
:10133000DF91CF91FF91EF91BF91AF919F918F91ED
:101340007F916F915F914F913F912F910F900BBEC5
:101350000F900FBE0F901F90189584B1807F84B9B5
:1013600084B1876084B9289A80E58CBD81E08DBD09
:1013700028980895442381F0282FA62FB72FE82F0F
:10138000F92F81918EBD0DB407FEFDCF8EB58D93E3
:101390008E2F821B8417A8F30895662361F0282FEF
:1013A000E82FF92F81918EBD0DB407FEFDCF8E2F52
:1013B000821B8617B8F308958EBD0DB407FEFDCFCE
:1013C0008EB50895F8948FEF8AB91BB82FE986E897
:1013D00091E0215080409040E1F700C00000599A10
:1013E0008FEF87B988B18C6388B9EAE0F1E080813A
:1013F00084608083EBE0F1E080818B7F80832FE944
:1014000086E891E0215080409040E1F700C0000064
:101410008081846080832FE986E891E021508040BC
:101420009040E1F700C0000083E068D380E85ED31D
:1014300087E893E10197F1F700C0000081E856D3F7
:1014400087E054D387EA91E60197F1F700C00000E6
:1014500080E054D380E84AD387E893E10197F1F71D
:1014600000C0000083E842D387E893E10197F1F7D9
:1014700000C000000E9493009FE72AE186E091509F
:1014800020408040E1F700C0000067DD41E06FE0F0
:1014900072E080E0E0DD63E081E07CDE84E192E008
:1014A00064DE789408950F931F93CF93DF93182FE2
:1014B000092FC62FD72F89E819D3802F17D3812F53
:1014C00015D38D2F13D38C2F11D3DF91CF911F9173
:1014D0000F910895CF92DF92EF92FF920F931F9397
:1014E000CF93DF9300D000D0CDB7DEB749835A83C6
:1014F0006B837C838D839E83CB80DC80ED80FE803C
:101500008CE8F4D28981F2D28C2DF0D21C141D0407
:1015100084F48701CC0CDD1CEC0CFD1CF8018081EF
:10152000E5D2F8018181E2D20E5F1F4F0E151F0533
:10153000A9F726960FB6F894DEBF0FBECDBFDF9198
:10154000CF911F910F91FF90EF90DF90CF90089572
:10155000EF92FF920F931F93CF93DF93CDB7DEB738
:101560000DB71EB7FB0177230CF43196F595E7957F
:1015700060FD31C06DB77EB79F01220F331F4DB79D
:101580005EB7421B530B0FB6F8945EBF0FBE4DBF44
:101590004F5F5F4F1E161F06B4F4FA017C01AFEFD8
:1015A000EA1AFA0A240F351FC7010197DC018C9152
:1015B0008083D7018C9181833296B2E0EB0EF11CCF
:1015C000E217F30789F70FB6F8947EBF0FBE6DBF21
:1015D000842F952F02C080E090E00FB6F8941EBFD4
:1015E0000FBE0DBFDF91CF911F910F91FF90EF9034
:1015F0000895CF93C82F8DE879D28C2F77D2CF91D1
:1016000008958091A10C9091A20C892B31F460E097
:1016100070E080E49BE00C94820208958AEF90E0F1
:101620009093A00C80939F0C8FEF9FEF90939E0C54
:1016300080939D0C60919D0C70919E0C80919F0CED
:101640009091A00C30DF0C94C60208958091A10CFB
:101650009091A20C892B89F460E070E080E090E02A
:1016600022DF81E40E94700160919D0C70919E0CBC
:1016700080919F0C9091A00C16DF0E94B402E6CFDF
:1016800080E090E0B6DF2FEF84E39CE021508040C3
:101690009040E1F700C0000081E090E0AADF2FEF6A
:1016A00084E39CE0215080409040E1F700C00000BE
:1016B00082E090E09EDF2FEF84E39CE021508040A9
:1016C0009040E1F700C0000083E090E092DF0E94CC
:1016D000B402D6CF91E090939A0C80939B0C08951E
:1016E0001092A20C1092A10C60E070E08EE09BE0E2
:1016F0000C949B020895CF93DF9300D01F921F920A
:10170000CDB7DEB749835A836B837C838D83A091E9
:101710003E02B0913F0285E0FE01319601900D92AC
:101720008A95E1F78091A40C9091A50C892B41F446
:1017300080913E0290913F029093A50C8093A40C5F
:1017400080913E0290913F0220913C0230913D02F7
:101750008217930739F486EA9CE090933F028093C6
:101760003E0205C0059690933F0280933E020F9083
:101770000F900F900F900F90DF91CF9108951F93CE
:10178000CF93DF93CDB7DEB7A0970FB6F894DEBF47
:101790000FBECDBFCE01019627DD182F8430D1F3C7
:1017A0004C815D816E817F818885A5DF123091F744
:1017B00081E080939C0CA0960FB6F894DEBF0FBE1C
:1017C000CDBFDF91CF911F910895CF93DF93CDB718
:1017D000DEB72A970FB6F894DEBF0FBECDBF80915B
:1017E000A40C9091A50C009751F125E0FC01DE01BD
:1017F000169601900D922A95E1F720913C023091C6
:101800003D028217930739F486EA9CE09093A50C79
:101810008093A40C05C005969093A50C8093A40C0E
:101820002091A40C3091A50C80913E0290913F0232
:101830002817390721F41092A50C1092A40C85E00A
:10184000FE013696DE01119601900D928A95E1F720
:1018500029813A814B815C816D8170E080E090E06C
:101860002A960FB6F894DEBF0FBECDBFDF91CF91A1
:101870000895CF93DF9300D01F921F92CDB7DEB7AC
:1018800080919C0C882399F18091A40C9091A50CD7
:10189000892B69F19ADF29833A834B835C836D83BB
:1018A0001091A30C2117E9F02093A30C213019F01B
:1018B000223089F016C014DF111113C004E110E0CA
:1018C00029E130E044E650E060E070E086E29BE031
:1018D0000E945A0206C060E070E081E09BE00E9436
:1018E00082028091A40C9091A50C892B99F60E94FC
:1018F000B402C6CFCF92DF92EF92FF920F931F9365
:10190000CF93DF93CDB7DEB7C859D1090FB6F8949E
:10191000DEBF0FBECDBF80E2E0E4F2E0DE01AF59F2
:10192000BF4F01900D928A95E1F780E2E0E6F2E088
:10193000DE01AF5BBF4F01900D928A95E1F780E227
:10194000E0E8F2E0DE01919601900D928A95E1F7D0
:1019500080E2E0EAF2E0DE01119601900D928A95B4
:10196000E1F760E270E0CE018F599F4FF1DD6C012D
:1019700060E270E0CE018F5B9F4FEADD7C0160E2A8
:1019800070E0CE018196E4DD8C0160E270E0CE0172
:101990000196DEDDFE01ED56FF4F66E0DF01262FEA
:1019A0001D922A95E9F720E130E033832283D58226
:1019B000C4826E014DE8C40ED11CD601462F1D9283
:1019C0004A95E9F741E050E0D60111965C934E93B9
:1019D00013963C932E9312971596FC92EE921497C1
:1019E0007E01B7E8EB0EF11CD701462F1D924A95F8
:1019F000E9F742E050E0D70111965C934E931396BD
:101A00003C932E93129715961C930E9314978E0168
:101A10000F571F4FD8011D926A95E9F743E050E038
:101A2000D80111965C934E9313963C932E93129784
:101A300015969C938E931497408151816281738196
:101A40008481958147DDF6014081518162817381F6
:101A5000848195813FDDD7014C9111965C9111975E
:101A600012966C91129713967C91139714968C9101
:101A7000149715969C912EDDF80140815181628169
:101A800073818481958126DDC856DF4F0FB6F894A7
:101A9000DEBF0FBECDBFDF91CF911F910F91FF90A1
:101AA000EF90DF90CF9008950F931F938BDC22DF90
:101AB00000E010E022E030E048EC50E060E070E050
:101AC00089E39CE00E945A0204E610E02EE130E037
:101AD00048EC50E060E070E086E29BE00E945A0231
:101AE000789480E090E01F910F910895E8ECF0E089
:101AF000908195FFFDCF8093CE0008952FB7F89485
:101B0000E5E6F0E090819E7F9083813069F028F0D7
:101B1000823089F08330B1F01CC083E390E0909371
:101B2000CD008093CC001BC089E190E09093CD0064
:101B30008093CC0014C080E190E09093CD0080931E
:101B4000CC000DC088E090E09093CD008093CC0055
:101B500006C080E190E09093CD008093CC00E8EC4B
:101B6000F0E080E4808388E08093C90086E0809381
:101B7000CA0080818D7F80832FBF08951F920F92AE
:101B80000FB60F9211240BB60F928F939F93EF9382
:101B9000FF93E091D80CF0E08091CE00E752F34F34
:101BA00080838091D80C90E001968F71907880931B
:101BB000D80CFF91EF919F918F910F900BBE0F90DA
:101BC0000FBE0F901F901895A29FB001B39FC00148
:101BD000A39F700D811D1124911DB29F700D811D59
:0A1BE0001124911D0895F894FFCF21
:101BEA004A4A4A4A4A4A4A4A4A4A4A4A4A4A4A4A4B
:101BFA004A4A4A4AFFFFFFFFFF1D02180B00000076
:101C0A0000000000010000000001FF00E7E7E7E72D
:101C1A00E7E7E7E7E7E7202000000000D80CA60C7A
:101C2A002E102410261029102E10301032103510C4
:101C3A003A103C103E104110461048104A104D1000
:101C4A0052104D104A104810461041103E103C10D8
:101C5A003A103510321030102E1029102610241088
:101C6A002B102D102E1026102B102D102E10321086
:101C7A00371039103A103E104310451046104A10DA
:101C8A004F104A104610451043103E103A103910B2
:101C9A00371032102E102D102B1026102E102D104A
:00000001FF
