S01700004763634170706C69636174696F6E322E737265635A
S113000071C000008EC000008CC000008AC00000D7
S113001088C0000090C2000084C0000082C00000BC
S113002080C000007EC000007CC000007AC00000D8
S113003078C0000076C0000074C0000072C00000E8
S113004070C000006EC000006CC000006AC00000F8
S113005068C0000066C0000064C0000062C0000008
S113006060C000005EC000005CC000005AC0000018
S113007058C0000056C0000054C0000052C0000028
S113008050C000004EC000004CC000004AC0000038
S1130090EDC3000046C0000044C0000042C00000A0
S11300A040C000003EC000003CC000003AC0000058
S11300B038C0000036C0000034C0000032C0000068
S11300C030C000002EC000002CC000002AC0000078
S11300D028C0000026C0000024C0000022C0000088
S11300E020C0000011241FBECFEFD1E2DEBFCDBF80
S11300F000E00CBF12E0A0E0B2E0ECEBF8E000E0BE
S11301000BBF02C007900D92A232B107D9F722E0CB
S1130110A2E2B2E001C01D92A434B207E1F755D3C4
S1130120CBC36ECF429AEAE0F1E0808180628083A3
S1130130A0E2B1E01C92E1E2F1E010828C918360D4
S11301408C9380818861808380818160808384EA4C
S113015091E0909329018093280182ED90E090939F
S11301602D0180932C0142981092250110922401B4
S11301700895CF93DF93C2E0D1E088818F7B888399
S11301808FEF8CD2988190649883DF91CF910895FA
S1130190EF92FF920F931F93CF93DF938B01E42E83
S11301A0C2E0D1E098819F7B98838F71806276D280
S11301B0F82E6E2DC80163D28881806488838F2DC8
S11301C0DF91CF911F910F91FF90EF90089580914F
S11301D01C02882329F045E067E172E08AE0D8CF69
S11301E00895FF920F931F93CF93DF938B01EA013E
S11301F0F22EE2E0F1E090819F7B90834FD2FF20CA
S113020051F0209721F46F2DC80139D204C04F2D2D
S1130210BE01C80121D2E2E0F1E0808180648083E4
S1130220DF91CF911F910F91FF900895EF92FF926C
S11302300F931F93CF93DF93062FF72E142F44238E
S113024049F0362FE62FF72F2FEF21939E2F931B84
S11302509117D8F3C2E0D1E098819F7B98838F7186
S11302601DD2E82E412F602F7F2D80E090E0F4D145
S11302708881806488838E2DDF91CF911F910F91A7
S1130280FF90EF900895CF93DF931F92CDB7DEB721
S113029041E0BE016F5F7F4F80E0C8DF898180FD50
S11302A014C08160898341E0BE016F5F7F4F80E0AD
S11302B06FDF83E091E00197F1F700C0000083E075
S11302C091E00197F1F700C000000F90DF91CF910A
S11302D00895CF93DF931F92CDB7DEB71092220219
S11302E0E1E0F1E0808188618083A2E0B1E08C915B
S11302F08F7E8C938C91877F8C938C918F7D8C9344
S11303008081806280838081806480836C98EAE647
S1130310F0E080818260808380818E7F8083EC9A8C
S1130320E49A8FED9BEA0197F1F700C0000087D1B2
S113033083E0898341E0BE016F5F7F4F29DF85E160
S1130340898341E0BE016F5F7F4F84E021DF88E64F
S1130350898341E0BE016F5F7F4F85E019DF89E04B
S1130360898341E0BE016F5F7F4F86E011DF8FE03C
S1130370898341E0BE016F5F7F4F80E009DF80E742
S1130380898341E0BE016F5F7F4F87E001DF20E09A
S113039040E050E060E070E081EE23DF20E040E0E8
S11303A050E060E070E082EE1CDF8FE39FE1019794
S11303B0F1F700C00000E2E0F1E080818062808318
S11303C08081806180830F90DF91CF910895CF92D7
S11303D0DF92EF92FF920F931F93CF93DF931F92BD
S11303E0CDB7DEB7D82EC42E85E08D1508F46FC0C6
S11303F0D11011C0FB018081809317028181809309
S11304001802828180931902838180931A02848165
S113041080931B0203C0F1E0FD1510F045E001C01C
S113042041E08AE08D0DB4DE41E0BE016F5F7F4F95
S113043081E0FCDEED2CF12C01E010E00D2C02C07B
S1130440000F111F0A94E2F78981802B898341E010
S1130450BE016F5F7F4F81E09BDEC11008C01FC0EB
S113046041E0BE016F5F7F4F82E092DE30C080E2E8
S1130470898341E0BE016F5F7F4F81E18D0D88DE8E
S11304808981F701E45EFD4F808341E0BE016F5F27
S11304907F4F82E0CBDE8981082B0983E1CF19826B
S11304A041E0BE016F5F7F4F81E18D0D71DE898177
S11304B0F701E45EFD4F808341E0BE016F5F7F4F33
S11304C082E0B4DE0095898108230983C9CF0F90A7
S11304D0DF91CF911F910F91FF90EF90DF90CF901C
S11304E008950F931F93CF93DF931F92CDB7DEB779
S11304F0082F162F6430C8F48230B8F441E0BE01EE
S11305006F5F7F4F86E092DE110F8981866018232A
S1130510002319F01860198302C0177F198341E082
S1130520BE016F5F7F4F86E033DE0F90DF91CF9186
S11305301F910F9108951F920F920FB60F921124DD
S11305400BB60F922F933F934F935F936F937F93C9
S11305508F939F93AF93BF93EF93FF93CF93DF93C7
S11305601F92CDB7DEB7E2E0F1E080818F7E808319
S113057080818F7D8083FDDD898386FF03C08E703B
S1130580869522D1898185FF1BC0109222021FDE2D
S11305907ADE8091150290911602880F991F90932C
S11305A016028093150280911502909116028160C3
S11305B0909316028093150281E08093140219C06F
S11305C084FF17C020E040E050E060E070E081EE7E
S11305D008DE10922202FBDD56DE80911502909116
S11305E01602880F991F9093160280931502109299
S11305F0140280E7898341E0BE016F5F7F4F87E08B
S1130600C7DDE2E0F1E080818061808380818062E7
S113061080830F90DF91CF91FF91EF91BF91AF91C4
S11306209F918F917F916F915F914F913F912F9106
S11306300F900BBE0F900FBE0F901F90189584B1B2
S1130640807F84B984B1876084B9289A80E58CBDA1
S113065081E08DBD28980895442381F0282FA62F8A
S1130660B72FE82FF92F81918EBD0DB407FEFDCF72
S11306708EB58D938E2F821B8417A8F3089566235D
S113068061F0282FE82FF92F81918EBD0DB407FE5C
S1130690FDCF8E2F821B8617B8F308958EBD0DB43F
S11306A007FEFDCF8EB50895F8948FEF8AB91BB875
S11306B02FEF89E698E1215080409040E1F700C097
S11306C00000599A8FEF87B988B18C6388B9EAE042
S11306D0F1E0808184608083EBE0F1E080818B7FB6
S11306E080832FEF89E698E1215080409040E1F724
S11306F000C000008081846080832FEF89E698E148
S1130700215080409040E1F700C0000083E06ED0AB
S113071080E864D02FEF89EF90E021508040904032
S1130720E1F700C0000081E859D087E057D02FEFEF
S113073081EE94E0215080409040E1F700C0000039
S113074080E054D080E84AD02FEF89EF90E0215028
S113075080409040E1F700C0000083E83FD02FEFD5
S113076089EF90E0215080409040E1F700C0000004
S1130770D9DC2FEF87EA91E6215080409040E1F7E1
S113078000C00000A6DD41E060E072E080E01FDE12
S113079063E081E0A6DE789408950F931F93CF93CE
S11307A0DF93182F092FC62FD72F89E817D0802F52
S11307B015D0812F13D08D2F11D08C2F0FD0DF9116
S11307C0CF911F910F91089508956EDF6FEF7FEF22
S11307D084E690E0E2DF80E090E00895E8ECF0E069
S11307E0908195FFFDCF8093CE0008952FB7F894A4
S11307F0E5E6F0E090819E7F9083813069F028F0F7
S1130800823089F08330B1F01CC083E390E0909390
S1130810CD008093CC001BC089E190E09093CD0083
S11308208093CC0014C080E190E09093CD0080933D
S1130830CC000DC088E090E09093CD008093CC0074
S113084006C080E190E09093CD008093CC00E8EC6A
S1130850F0E080E4808388E08093C90086E08093A0
S1130860CA0080818D7F80832FBF08951F920F92CD
S11308700FB60F9211240BB60F928F939F93EF93A1
S1130880FF93E0912302F0E08091CE00EC5DFD4FF8
S113089080838091230290E001968F7190788093F9
S11308A02302FF91EF919F918F910F900BBE0F90B8
S10F08B00FBE0F901F901895F894FFCF16
S11308BCAAAAAAAAAABBBBBBBBBBCCCCCCCCCCDD56
S11308CCDDDDDDDD01FF00E7E7E7E7E720200000E1
S10508DC000016
S9030000FC
